:100000000C945F010C947E010C947E010C947E0193
:100010000C947E010C947E010C947E010C947E0164
:100020000C947E010C947E010C947E010C947E0154
:100030000C947E010C947E010C947E010C947E0144
:100040000C947E010C94AD120C947E010C947E01F4
:100050000C947E010C947E010C947E010C947E0124
:100060000C947E010C947E010C947E010C947E0114
:100070000C947E010C947E010C947E010C947E0104
:100080000C947E010C947E010C947E010C947E01F4
:100090000C947E010C947E01084AD73B3BCE016E46
:1000A00084BCBFFDC12F3D6C74319ABD56833DDACF
:1000B0003D00C77F11BED9E4BB4C3E916BAAAABEDE
:1000C000000000803F05A84CCDB2D44EB93836A907
:1000D000020C50B9918688083CA6AAAA2ABE000044
:1000E00000803F000000000000005F0000000300EF
:1000F0000300143E143E14242A7F2A124333086658
:100100006136495522500005030000001C224100C1
:100110000041221C0014083E081408083E0808008C
:100120005030000008080808080060600000201037
:100130000804023E5149453E0004027F00426151DD
:10014000494622414949361814127F102745454532
:10015000393E494949320101710907364949493651
:10016000264949493E003636000000563600000850
:100170001422410014141414140041221408020122
:100180005109063E4159555E7E0909097E7F49495C
:1001900049363E414141227F4141413E7F494949E3
:1001A000417F090909013E4141493A7F0808087F1A
:1001B00000417F4100304040403F7F081422417F92
:1001C000404040407F020C027F7F0204087F3E4196
:1001D00041413E7F090909061E2121215E7F09094F
:1001E0000976264949493201017F01013F404040DB
:1001F0003F1F2040201F7F2010207F41221C2241D2
:1002000007087008076151494543007F410000021B
:10021000040810200000417F000402010204404055
:10022000404040000102040020545454787F44446C
:1002300044383844444444384444447F3854545443
:100240001804047E0505085454543C7F08040478BF
:1002500000447D40002040443D007F1028440000C1
:10026000417F40007C047804787C0804047838449A
:100270004444387C14141408081414147C007C08BA
:100280000404485454542004043F44443C40402057
:100290007C1C2040201C3C4030403C44281028441A
:1002A0000C5050503C4464544C44000836414100CA
:1002B000007F0000414136080002010204021124BF
:1002C0001FBECFEFD0E2DEBFCDBF11E0A0E0B1E0B6
:1002D000ECEFFEE300E00BBF02C007900D92A031EF
:1002E000B107D9F718E0A0E1B1E001C01D92A73E27
:1002F000B107E1F70E94BE1B0C947C1F0C94000018
:100300004F925F926F927F928F929F92AF92BF9225
:10031000CF92DF92EF92FF920F931F93CF93DF93D1
:10032000CDB7DEB7A0970FB6F894DEBF0FBECDBF36
:100330006D8B7E8B8F8B988F29013A01A986BA86A7
:10034000CB86DC86ED86FE860F87188B8BA99CA951
:10035000ADA9BEA9898B9A8BAB8BBC8B8FA898ACAF
:10036000A9ACBAAC9C01AD0169857A858B859C8569
:100370000E94EA1B6B017C01A50194016D857E85BD
:100380008F8598890E94EA1B698F7A8F8B8F9C8F4B
:10039000A3019201C701B6010E94321E6D8F7E8FAC
:1003A0008F8F98A32D893E894F89588D698D7A8DBD
:1003B0008B8D9C8D0E94321E9B01AC016D8D7E8DBC
:1003C0008F8D98A10E94EA1B29893A894B895C8903
:1003D0000E94EB1B162FAB01BC0149835A836B8330
:1003E0007C832D893E894F89588DC701B6010E94B3
:1003F000321E6B017C01A3019201698D7A8D8B8D78
:100400009C8D0E94321E9B01AC01C701B6010E9467
:10041000EB1BA50194010E94EB1BE62F462F572FE3
:10042000BC014D835E836F837887212F3A814B8196
:100430005C816E2F7E818F819885A0960FB6F8948F
:10044000DEBF0FBECDBFDF91CF911F910F91FF9007
:10045000EF90DF90CF90BF90AF909F908F907F9064
:100460006F905F904F9008953F924F925F926F927E
:100470007F928F929F92AF92BF92CF92DF92EF9234
:10048000FF920F931F93CF93DF93CDB7DEB72A97D9
:100490000FB6F894DEBF0FBECDBF9B01AC012D831C
:1004A0003E834F8358870E94951E2B013C012D816E
:1004B0003E814F815885CA01B9010E947B1C698326
:1004C0007A838B839C832D813E814F8158856091F7
:1004D000F6017091F7018091F8019091F9010E9465
:1004E000EB1B6093F6017093F7018093F8019093F2
:1004F000F901812C912C98E0392E8FEF881A980AF7
:10050000F40183E0EE0FFF1F8A95E1F7E456FE4FFA
:10051000FA87E9878DB79EB708970FB6F8949EBF04
:100520000FBE8DBFADB7BEB71196ECE9F1E0832DDC
:1005300001900D928A95E1F7E985FA85A080B18056
:10054000C280D380E480F5800681178129813A81B9
:100550004B815C81C301B2010E948001E985FA856B
:100560002083318342835383648375838683978397
:100570000FB6F894DEBF0FBECDBF98E08916910488
:1005800009F0BBCF4090F6015090F7016090F80160
:100590007090F901C301B2010E947B1C6093E601D7
:1005A0007093E7018093E8019093E901C301B201E0
:1005B0000E94951E6093EA017093EB018093EC0119
:1005C0009093ED012BED3FE049E450E4C301B2010B
:1005D0000E94EA1B2B013C010E947B1C6093EE01F0
:1005E0007093EF018093F0019093F101C301B20188
:1005F0000E94951E6093F2017093F3018093F401C1
:100600009093F5012A960FB6F894DEBF0FBECDBFCA
:10061000DF91CF911F910F91FF90EF90DF90CF90DE
:10062000BF90AF909F908F907F906F905F904F9012
:100630003F9008958F929F92AF92BF92CF92DF9298
:10064000EF92FF92CF93DF938090FA019090FB019D
:10065000A090FC01B090FD01C090FE01D090FF0180
:10066000E0900002F0900102C4EAD1E0A5019401FB
:10067000688179818A819B810E94EB1B68837983E1
:100680008A839B83A70196016C817D818E819F81E6
:100690000E94EB1B6C837D838E839F83289681E071
:1006A000C43ED80719F720919C0130919D014091DB
:1006B0009E0150919F01C501B4010E94EB1B4B01AB
:1006C0005C0160939C0170939D0180939E019093C7
:1006D0009F012091A0013091A1014091A201509170
:1006E000A301C701B6010E94EB1B6B017C01609363
:1006F000A0017093A1018093A2019093A30120E037
:1007000030E04FEA53E4C501B4010E94271E1816D9
:100710009CF080909C0190909D01A0909E01B090D3
:100720009F0120E030E040EF51ECC501B4010E9490
:10073000771C87FD27C04BC020E030E048EC53E435
:10074000C501B4010E94EA1B60939C0170939D0156
:1007500080939E0190939F01C4EAD1E020E030E0B5
:1007600048EC53E4688179818A819B810E94EA1B6D
:10077000688379838A839B83289681E0C43ED80767
:1007800069F7C7CF20E030E048EC53E4C501B4017D
:100790000E94EB1B60939C0170939D0180939E01CE
:1007A00090939F01C4EAD1E020E030E048EC53E4AC
:1007B000688179818A819B810E94EB1B68837983A0
:1007C0008A839B83289681E0C43ED80769F720E09E
:1007D00030E047E853E4C701B6010E94271E18160F
:1007E0002CF520E030E040EA53E4C701B6010E9456
:1007F000EA1B6093A0017093A1018093A2019093E2
:10080000A301C8EAD1E020E030E040EA53E4688187
:1008100079818A819B810E94EA1B688379838A831C
:100820009B83289681E0C83ED80769F7C090A00155
:10083000D090A101E090A201F090A30120E030E06F
:1008400040EF51ECC701B6010E94771C87FF25C01D
:1008500020E030E040EA53E4C701B6010E94EB1B00
:100860006093A0017093A1018093A2019093A301D2
:10087000C8EAD1E020E030E040EA53E468817981C1
:100880008A819B810E94EB1B688379838A839B8387
:10089000289681E0C83ED80769F7DF91CF91FF9095
:1008A000EF90DF90CF90BF90AF909F908F90089582
:1008B0002F923F924F925F926F927F928F929F9270
:1008C000AF92BF92CF92DF92EF92FF920F931F935E
:1008D000CF93DF938091E401823009F012C136E2B8
:1008E000232E33E0332EC6EFD2E004EA11E0F80104
:1008F000C080D180E280F38088809980AA80BB800C
:10090000A5019401C701B6010E94271E18160CF01C
:10091000E8C0F101608170E080E090E00E94191D64
:100920002B013C019B01AC01C501B4010E94EB1BF2
:100930009B01AC01C701B6010E94771C87FFD1C0A3
:10094000F801C480D580E680F7808C809D80AE80E1
:10095000BF80A5019401C701B6010E94271E181689
:100960000CF0BFC0A3019201C501B4010E94EB1BB2
:100970009B01AC01C701B6010E94771C87FFB1C083
:1009800024E7E22E25E0F22E0E940A1FBC018827F0
:1009900077FD8095982F0E94191D20E03EEF4FEFC4
:1009A00056E40E947E1C9B01AC010E94EB1B2BEDC8
:1009B0003FE049E450E40E94321E4B015C01ECE947
:1009C000F1E0D70188E001900D928A95E1F7C50129
:1009D000B4010E947B1C20E030E040E251E40E9420
:1009E000321E9B01AC0160919C0170919D01809130
:1009F0009E0190919F010E94EB1BF7016087718718
:100A000082879387C501B4010E94951E20E030E0E3
:100A100040E251E40E94321E9B01AC016091A001B2
:100A20007091A1018091A2019091A3010E94EB1B02
:100A3000F70164877587868797870E940A1FBC0124
:100A4000882777FD8095982F0E94191D20E03EEFA2
:100A50004FEF56E40E947E1C9B01AC010E94EB1BF1
:100A60002BED3FE049E450E40E94321E4B015C0153
:100A70000E947B1C9B01AC010E94EB1BF701608B69
:100A8000718B828B938BC501B4010E94951E9B01D3
:100A9000AC010E94EB1BF701648B758B868B978BE7
:100AA000F0E1F093020288E1E80EF11CE4EDEE16AD
:100AB000E5E0FE0609F068CF1092E401809118018C
:100AC000909119018630910510F0059702C080E0E1
:100AD00090E09093190180931801109215011092E3
:100AE0001401085F1F4FF1E0043E1F0709F0FFCE1D
:100AF00081E3280E311CE196E5E0C234DE0709F0FF
:100B0000F4CEDF91CF911F910F91FF90EF90DF9086
:100B1000CF90BF90AF909F908F907F906F905F909D
:100B20004F903F902F9008954F925F926F927F92D7
:100B3000AF92BF92CF92DF92EF92FF920F931F93EB
:100B4000CF93DF93CDB7DEB727013801F0908A0647
:100B5000E1E3FE9E800111240A501D4FF8016083DD
:100B60007183828393832483358346835783C601AD
:100B7000B5010E947B1C9B01AC01C301B2010E9424
:100B8000321EF80160A771A782A793A7C601B5011D
:100B90000E94951E9B01AC01C301B2010E94321E4E
:100BA000F80164A775A786A797A769897A898B89B1
:100BB0009C890E94EB1CF80160AB4DE011E32CE036
:100BC00030E08F2D90E0189FF001199FF00D112457
:100BD000EA50FD4F50A9552341F0415031F00196A4
:100BE000B9010E94D61BF82EECCFF0928A06DF9155
:100BF000CF911F910F91FF90EF90DF90CF90BF901A
:100C0000AF907F906F905F904F9008954F925F925A
:100C10006F927F928F929F92AF92BF92CF92DF920C
:100C2000EF92FF920F931F93CF93DF932B013C0121
:100C300049015A010E940A1FBC01882777FD80954F
:100C4000982F0E94191D20E03EEF4FEF56E40E94BE
:100C50007E1C9B01AC010E94EB1B2BED3FE049E4A5
:100C600050E40E94321E6B017C010091550210E09D
:100C70000E947B1CE80143E0CC0FDD1F4A95E1F7A1
:100C8000CA5ADD4F20E030E040EA50E40E94321EB4
:100C90000E94E61C7D836C83C701B6010E94951EED
:100CA00020E030E040E251E40E94321E0E94E61C47
:100CB0007F836E83C301B2010E94EB1C798368833A
:100CC000C501B4010E94EB1C7B836A83C8010196B5
:100CD0006AE070E00E94D61B80935502DF91CF91AD
:100CE0001F910F91FF90EF90DF90CF90BF90AF904A
:100CF0009F908F907F906F905F904F9008950F938B
:100D00001F9340E050E060E273E440939C015093F5
:100D10009D0160939E0170939F0180E090E0A0EFA1
:100D2000B2E48093A0019093A101A093A201B0939B
:100D3000A30180E090E0AAE1B3E48093A401909342
:100D4000A501A093A601B093A70180E090E0A0E0E8
:100D5000B3E48093A8019093A901A093AA01B09352
:100D6000AB0100E010E026E233E40093AC01109305
:100D7000AD012093AE013093AF018093B001909309
:100D8000B101A093B201B093B3014093B401509369
:100D9000B5016093B6017093B70180E090E0ACEDCF
:100DA000B2E48093B8019093B901A093BA01B093D3
:100DB000BB0180E090E0ABE1B3E48093BC01909391
:100DC000BD01A093BE01B093BF0180E090E0AAEF07
:100DD000B2E48093C0019093C101A093C201B0938B
:100DE000C30100E010E025E233E40093C401109356
:100DF000C5012093C6013093C7018093C801909329
:100E0000C901A093CA01B093CB0100E010E02DE12D
:100E100033E40093CC011093CD012093CE013093A5
:100E2000CF018093D0019093D101A093D201B093D0
:100E3000D3014093D4015093D5016093D6017093B0
:100E4000D70140E050E063E073E44093D801509351
:100E5000D9016093DA017093DB0140E050E063E276
:100E600073E44093DC015093DD016093DE017093E5
:100E7000DF018093E0019093E101A093E201B09340
:100E8000E3018BED9FE0A9ECBFEB8093F60190931B
:100E9000F701A093F801B093F9018EE29DEBABE36B
:100EA000B3EB8093E6019093E701A093E801B09340
:100EB000E90180E090E0A0E8BFEB8093EA01909325
:100EC000EB01A093EC01B093ED0180E090E0A0E88D
:100ED000BFE38093EE019093EF01A093F001B093F4
:100EE000F1018EE29DEBABE3B3E38093F2019093CB
:100EF000F301A093F401B093F50181E08093E40144
:100F00001092FA011092FB011092FC011092FD0167
:100F10001092FE011092FF01109200021092010245
:100F20001092E5011F910F910895E1E6F0E080E84D
:100F3000808310820E94DD160E94961A6C98749A23
:100F40006D98759A0E947F0610923A01109273056F
:100F500010929B011092030210920402109255020B
:100F60001092D8081092D70810928A068DE08093CC
:100F7000810086E891E0909389008093880082E068
:100F800080936F00109285001092840008956F92F4
:100F90007F928F929F92AF92BF92CF92DF92EF9209
:100FA000FF920F931F93CF93DF9300D000D0CDB764
:100FB000DEB76091F0057091F1058091F205909196
:100FC000F3050E94E61C9B01AC016091EC05709159
:100FD000ED058091EE059091EF0529833A834B83CF
:100FE0005C830E94E61C4B015C016091E0057091FE
:100FF000E1058091E2059091E3050E94E61C6B01FA
:101000007C016091DC057091DD058091DE05909199
:10101000DF050E94E61CDC01CB0100E010E0298125
:101020003A81A401B6010E94C9146091E80570914B
:10103000E9058091EA059091EB050E94E61C9B0171
:10104000AC016091E4057091E5058091E605909111
:10105000E70529833A834B835C830E94E61C4B019E
:101060005C016091F0057091F1058091F20590911D
:10107000F3050E94E61C6B017C016091EC05709108
:10108000ED058091EE059091EF050E94E61CDC01D4
:10109000CB0129813A81A401B6010E94C914609153
:1010A00000067091010680910206909103060E944D
:1010B000E61C9B01AC016091FC057091FD058091DF
:1010C000FE059091FF0529833A834B835C830E9440
:1010D000E61C4B015C016091F8057091F905809167
:1010E000FA059091FB050E94E61C6B017C01609162
:1010F000F4057091F5058091F6059091F7050E9431
:10110000E61CDC01CB0129813A81A401B6010E94D1
:10111000C914609110067091110680911206909189
:1011200013060E94E61C9B01AC0160910C067091B5
:101130000D0680910E0690910F0629833A834B830A
:101140005C830E94E61C4B015C0160910806709173
:10115000090680910A0690910B060E94E61C6B011D
:101160007C016091040670910506809106069091BD
:1011700007060E94E61CDC01CB0129813A81A4010B
:10118000B6010E94C91460911806709119068091E9
:101190001A0690911B060E94E61C9B01AC0160910F
:1011A00014067091150680911606909117062983F2
:1011B0003A834B835C830E94E61C4B015C01609187
:1011C00010067091110680911206909113060E94EC
:1011D000E61C6B017C0160910C0670910D068091FC
:1011E0000E0690910F060E94E61CDC01CB012981BE
:1011F0003A81A401B6010E94C9148091E4018823B8
:1012000009F446C1813029F460E1662E64E8762E47
:1012100003C066246A94762C6091B8017091B9017C
:101220008091BA019091BB010E94E61C9B01AC0128
:101230006091B4017091B5018091B6019091B701B0
:1012400029833A834B835C830E94E61C4B015C013B
:101250006091A8017091A9018091AA019091AB01C0
:101260000E94E61C6B017C016091A4017091A501B4
:101270008091A6019091A7010E94E61CDC01CB01A0
:10128000830129813A81A401B6010E94C9146091A9
:10129000B0017091B1018091B2019091B3010E94AF
:1012A000E61C9B01AC016091AC017091AD01809195
:1012B000AE019091AF0129833A834B835C830E94F6
:1012C000E61C4B015C016091B8017091B9018091FD
:1012D000BA019091BB010E94E61C6B017C016091F8
:1012E000B4017091B5018091B6019091B7010E944F
:1012F000E61CDC01CB0129813A81A401B6010E94E0
:10130000C9146091C8017091C9018091CA0190917E
:10131000CB010E94E61C9B01AC016091C40170915D
:10132000C5018091C6019091C70129833A834B83FF
:101330005C830E94E61C4B015C016091C0017091CE
:10134000C1018091C2019091C3010E94E61C6B0112
:101350007C016091BC017091BD018091BE019091B2
:10136000BF010E94E61CDC01CB0129813A81A40166
:10137000B6010E94C9148091E501882309F47CC05C
:1013800080911B01882309F477C06091D801709186
:10139000D9018091DA019091DB010E94E61C9B014A
:1013A000AC016091D4017091D5018091D6019091EA
:1013B000D70129833A834B835C830E94E61C4B014F
:1013C0005C016091D0017091D1018091D201909126
:1013D000D3010E94E61C6B017C016091CC017091ED
:1013E000CD018091CE019091CF010E94E61CDC01DD
:1013F000CB0129813A81A401B6010E94C9146091F0
:10140000E0017091E1018091E2019091E3010E947D
:10141000E61C9B01AC016091DC017091DD018091C3
:10142000DE019091DF0129833A834B835C830E9424
:10143000E61C4B015C016091D8017091D90180914B
:10144000DA019091DB010E94E61C6B017C01609146
:10145000D4017091D5018091D6019091D7010E945D
:10146000E61CDC01CB0129813A81A401B6010E946E
:10147000C91410921B0103C081E080931B0186E612
:10148000ECE9F1E0A4EDB5E001900D928A95E1F769
:101490000F900F900F900F90DF91CF911F910F91B0
:1014A000FF90EF90DF90CF90BF90AF909F908F9084
:1014B0007F906F9008950F931F93CF93DF93809148
:1014C0009B010AE010E0909103028917C1F0C82F38
:1014D000D0E0FE01B3E0EE0FFF1FBA95E1F7E65C46
:1014E000F94F6281738140E050E0808191810E94D8
:1014F0009E14CE010196B8010E94D61BE4CF8091C4
:101500003A010AE010E0409173058417C1F0C82F3A
:10151000D0E0FE01A3E0EE0FFF1FAA95E1F7EB5F1D
:10152000FD4F628173814FEF5FEF808191810E9457
:101530009E14CE010196B8010E94D61BE4CF809183
:101540003A0180939B0140930302C8E02AE030E017
:101550008417B1F090E0FC0173E0EE0FFF1F7A9565
:10156000E1F7DF01A65CB94FEB5FFD4F5C2F019007
:101570000D925A95E1F70196B9010E94D61BE8CF6A
:10158000DF91CF911F910F9108950F931F93CF93E8
:10159000DF938091D8080AE010E09091D70889176E
:1015A000C1F0C82FD0E0FE0193E0EE0FFF1F9A9527
:1015B000E1F7EA55FD4F6281738140E050E08081A0
:1015C00091810E949E14CE010196B8010E94D61B03
:1015D000E4CF809104020AE010E0409155028417A4
:1015E000C1F0C82FD0E0FE0183E0EE0FFF1F8A9507
:1015F000E1F7EA5AFD4F628173814FEF5FEF80811F
:1016000091810E949E14CE010196B8010E94D61BC2
:10161000E4CF809104028093D8084093D708C8E0B3
:101620002AE030E08417B1F090E0FC01D3E0EE0F47
:10163000FF1FDA95E1F7DF01AA55BD4FEA5AFD4FCA
:101640005C2F01900D925A95E1F70196B9010E9425
:10165000D61BE8CFDF91CF911F910F9108958F9204
:101660009F92AF92BF92CF92DF92EF92FF920F9331
:101670001F93CF93DF930EE113E0C6EFD2E046E273
:10168000A42E43E0B42EF5018081882309F46EC0B6
:10169000F8012081318142815381688179818A8179
:1016A0009B810E94EB1B6B017C01688379838A8399
:1016B0009B83F80124813581468157816C817D812E
:1016C0008E819F810E94EB1B6C837D838E839F8321
:1016D00020E030E040EA53E4C701B6010E94271E33
:1016E000181644F480E090E0A8E4B2EC8883998373
:1016F000AA83BB8320E030E048E452EC6881798122
:101700008A819B810E94771C87FF08C080E090E05F
:10171000A0EAB3E488839983AA83BB8320E030E006
:1017200040E753E46C817D818E819F810E94271E5A
:10173000181644F480E090E0A8E4B2EC8C839D831A
:10174000AE83BF8320E030E048E452EC6C817D81C1
:101750008E819F810E94771C87FF08C080E090E007
:10176000A0E7B3E48C839D83AE83BF83F1E3AF0E28
:10177000B11CE1960F5C1F4F35E0C234D30709F06E
:1017800082CF3BEBA32E36E0B32ECBE8D6E0F501BB
:1017900080808820B1F0912C6C817D818E819F8129
:1017A0000E94E61C6B017C01688179818A819B81A2
:1017B0000E94E61CDC01CB0100E010E09401A401D2
:1017C00016C06C817D818E819F810E94E61C6B0119
:1017D0007C01688179818A819B810E94E61CDC0101
:1017E000CB0100E010E02FE030E04FE050E0B60128
:1017F0000E940316F1E3AF0EB11CE19638E0C73D3D
:10180000D30729F6C6EFD2E026E2A22E23E0B22EBD
:10181000F50180808820C1F0912C6C817D818E81C2
:101820009F810E94E61C6B017C01688179818A811D
:101830009B810E94E61CDC01CB010FEF1FEF94019E
:10184000A401B6010E940316F1E3AF0EB11CE196AC
:1018500035E0C234D307E1F680E090E021E3DC011B
:10186000A557B94FFC01EA50FD4F322F01900D9260
:101870003A95E1F7C1968C34E2E09E0781F7DF915B
:10188000CF911F910F91FF90EF90DF90CF90BF907D
:10189000AF909F908F9008952F923F925F926F929A
:1018A0007F928F929F92AF92BF92CF92DF92EF92F0
:1018B000FF920F931F93CF93DF9300D000D0CDB74B
:1018C000DEB78091E401811193C0EBE36E2EE1E07D
:1018D0007E2EF30164857585868597850E94E61CBA
:1018E0009B01AC01F3016085718582859385298315
:1018F0003A834B835C830E94E61C4B015C01F3013D
:1019000064817581868197810E94E61C6B017C0150
:10191000F30160817181828193810E94E61CDC0168
:10192000CB0100E010E029813A81A401B6010E94B8
:10193000C914F8E16F0E711C8BE9681681E0780616
:1019400041F680910202882309F452C054E7252E03
:1019500055E0352E6BE3662E61E0762E78E1572E4A
:10196000F10164857585868597850E94E61C9B013B
:10197000AC01F101608571858285938529833A8365
:101980004B835C830E94E61C4B015C01F101648186
:101990007581868197810E94E61C6B017C01F101B3
:1019A00060817181828193810E94E61CDC01CB0100
:1019B0000FEF1FEF29813A81A401B6010E94C914DB
:1019C000F101D301852D01900D928A95E1F7F8E19F
:1019D0002F0E311C88E1680E711CE4ED2E16E5E037
:1019E0003E0609F0BDCF8091020281508093020231
:1019F0000F900F900F900F90DF91CF911F910F914B
:101A0000FF90EF90DF90CF90BF90AF909F908F901E
:101A10007F906F905F903F902F90089520911801D4
:101A20003091190145E051E06AE070E08AE090E011
:101A30000E948F180E944C0C0E94C50A0E94C70782
:101A40000E945B0A0E942F0B0C9458044F925F92E5
:101A50006F927F928F929F92AF92BF92CF92DF92BE
:101A6000EF92FF92CF93DF930E94AC1A892B09F477
:101A70006AC08091E401882309F465C0A0907305D1
:101A8000B12CC090F601D090F701E090F801F090F1
:101A9000F901C701B6010E947B1CE501B3E0CC0F40
:101AA000DD1FBA95E1F7CB5FDD4F20E030E040E28B
:101AB00051E40E94321E0E94E61C2B013C017D83F2
:101AC0006C83C701B6010E94951E20E030E040E221
:101AD00051E40E94321E0E94E61C6B017C017F8350
:101AE0006E83B201882777FD8095982F0E94191D7B
:101AF00020919C0130919D0140919E0150919F0148
:101B00000E94EB1B0E94EB1C79836883B601882737
:101B100077FD8095982F0E94191D2091A00130918A
:101B2000A1014091A2015091A3010E94EB1B0E94D0
:101B3000EB1C7B836A83C50101966AE070E00E941A
:101B4000D61B809373050E94881B892B51F08091CE
:101B5000E401882331F06FE175E88BE69EE30E9493
:101B600034020E94AC1B892B51F08091E401882340
:101B700031F06FE175E88BE69EEB0E9434020E9423
:101B80009A1B892B09F44DC08091E401882309F444
:101B900048C026E636E646E65FE36091E6017091CE
:101BA000E7018091E8019091E9010E94321E9B01BA
:101BB000AC016091FA017091FB018091FC01909160
:101BC000FD010E94EB1B6093FA017093FB0180936F
:101BD000FC019093FD0126E636E646E65FE3609160
:101BE000EA017091EB018091EC019091ED010E946E
:101BF000321E9B01AC016091FE017091FF0180914A
:101C00000002909101020E94EB1B6093FE01709311
:101C1000FF01809300029093010281E08093E5012F
:101C200002C01092E501C090FA01D090FB01E09053
:101C3000FC01F090FD0120E030E0A901C701B601F0
:101C40000E94771C811118C020E030E0A90160914A
:101C5000FE017091FF0180910002909101020E94AB
:101C6000271E1816D4F4A1E28A2EA3E19A2EA9EC1D
:101C7000AA2EAFE3BA2E19C0A70196016091FE010A
:101C80007091FF0180910002909101020E947E1CE0
:101C90000E944F1C4B015C0108C0F1E28F2EF3E162
:101CA0009F2EF9ECAF2EFFEBBF2E20E030E0A90114
:101CB000C701B6010E94771C87FF0AC02BED3FE0E9
:101CC00049E450E4C501B4010E94EA1B4B015C01E8
:101CD0002BED3FE049E450E4C501B4010E94EB1B49
:101CE0004B015C010E947B1C2DEC3CEC4CE45EE360
:101CF0000E94321E2B013C01C501B4010E94951EB9
:101D00002DEC3CEC4CE45EE30E94321E4B015C0186
:101D1000A30192015F77C701B6019F770E94271E3A
:101D200018167CF4A3019201C701B6010E94EB1BB7
:101D30006093FA017093FB018093FC019093FD0185
:101D400008C01092FA011092FB011092FC0110924F
:101D5000FD01C090FE01D090FF01E0900002F090E4
:101D60000102C701B6019F77A50194015F770E9428
:101D7000271E18167CF4A5019401C701B6010E9424
:101D8000EB1B6093FE017093FF0180930002909320
:101D9000010208C01092FE011092FF011092000291
:101DA00010920102DF91CF91FF90EF90DF90CF90E2
:101DB000BF90AF909F908F907F906F905F904F906B
:101DC0000C941A03AF92BF92CF92DF92EF92FF92E0
:101DD0000F931F9380911201909113010997E8F5D9
:101DE0000E940A1FBC0180E090E00E94171D20E0C5
:101DF0003EEF4FEF56E40E947E1C20E030E040ECC6
:101E000050E40E94321E22E42F9320E22F931F926F
:101E10001F925B016C01E12CF12C00E410E420E046
:101E200030E040EF51ECCA01B9010E949405809165
:101E3000100190911101019690931101809310016E
:101E40008091120190911301049690931301809355
:101E500012010F900F900F900F901F910F91FF9014
:101E6000EF90DF90CF90BF90AF9008952F923F9268
:101E70004F925F926F927F928F929F92AF92BF929A
:101E8000CF92DF92EF92FF920F931F93CF93DF9346
:101E9000CDB7DEB769970FB6F894DEBF0FBECDBFE2
:101EA0008091E401813099F480911601909117019D
:101EB00001969093170180931601819710F182E0AB
:101EC0008093E40110921701109216011AC081113B
:101ED00018C08091140190911501019690931501FD
:101EE00080931401819768F081E08093E40110925F
:101EF00015011092140110921701109216010E9400
:101F00007F0680913A0190917305981378C10091F2
:101F10000402E0905502F02E8AE0C82ED12CA1C216
:101F2000A989BA898D919C9197FD01969595879580
:101F3000E985FA85E81BF90BBF0180E090E00E947B
:101F4000171D6B017C01A30192010E94271E181628
:101F50000CF494C1BFEF2B1A3B0AEB81FC81F19684
:101F6000FC83EB8329813A812F5C3F4F3A8329839D
:101F70003CE02316310409F42BC1AB81BC81BC9138
:101F8000B98FBB2339F3ED81FE810190F081E02D03
:101F9000FA87E987BF0180E090E00E94171D6B017E
:101FA0007C01A981BA814D905D906D907C90A301D8
:101FB00092010E94271E18160CF0B2CFB98D6B2F1C
:101FC00070E080E090E00E94191D6B877C878D8710
:101FD0009E879B01AC01C301B2010E94EB1B9B01D8
:101FE000AC01C701B6010E94771C87FF99CF6D89AC
:101FF0007E898F89988D0E94171D6B017C01E98174
:10200000FA8184809580A680B780A50194010E9402
:10201000271E18160CF084CF2B853C854D855E85D8
:10202000C501B4010E94EB1B9B01AC01C701B601C5
:102030000E94771C87FF74CFF98DF83209F065C1D3
:10204000B1E3B29D4001B39D900C1124F401EA501C
:10205000FD4F4F0110AA0E940A1FBC01882777FD7F
:102060008095982F0E94191D20E03EEF4FEF56E417
:102070000E947E1C9B01AC010E94EB1B2BED3FE0FC
:1020800049E450E40E94321E5B016C01D4011496B5
:102090002D913D914D915C9117976D917D918D9111
:1020A0009C91B1E4BF93E0EFEF931F921F92E12C5C
:1020B000F12C00EA10E40E9494050E940A1FBC0162
:1020C000882777FD8095982F0E94191D20E03EEF0C
:1020D0004FEF56E40E947E1C9B01AC010E94EB1B5B
:1020E0002BED3FE049E450E40E94321E5B016C019D
:1020F000D40114962D913D914D915C9117976D915E
:102100007D918D919C91B1E4BF93E0EFEF931F928D
:102110001F920E9494050FB6F894DEBF0FBECDBF8C
:1021200080913A0190E001966AE070E00E94D61B2F
:1021300080933A0131E3329D8001339D100D1124CB
:102140000A501D4FD80114962D913D914D915C91EF
:1021500017976D917D918D919C910E940606F801D3
:10216000248135814681578160817181828193818B
:102170000E940606D80114962D913D914D915C91D7
:1021800017976D917D918D919C910E940606F801A3
:10219000248135814681578160817181828193815B
:1021A0000E940606D80114962D913D914D915C91A7
:1021B00017976D917D918D919C910E94060680915B
:1021C00018019091190101969093190180931801BB
:1021D000EF85F889EB5FFD4F8081918181349140DB
:1021E00008F00FC182819381813F910508F009C1F8
:1021F0008F81988501966AE070E00E94D61B9091CD
:102200007305891709F483CE282F30E038872F8390
:1022100013E0220F331F1A95E1F7388B2F87F9014E
:10222000EB5FFD4F8481958120813181820F931F67
:10223000918380830681178182819381080F191F02
:102240001383028386E293E09C838B83A6EFB2E044
:10225000BA83A983212C312CFE83ED833496FA8B2B
:10226000E98BED81FE813696FC8BEB8BC801A0E0FB
:10227000B0E08D8B9E8BAF8BB88F7FCEF98D6F2F9B
:1022800070E080E090E00E94191D4B015C019B0111
:10229000AC01C301B2010E94EB1B9B01AC01C70161
:1022A000B6010E94771C87FF55CEAB89BC898D9102
:1022B0009C9197FD019695958795F801E81BF90B80
:1022C000BF0180E090E00E94171D6B017C01A98195
:1022D000BA8114964D905D906D907C901797A301F4
:1022E00092010E94271E18160CF034CEA50194010D
:1022F000C301B2010E94EB1B9B01AC01C701B601F7
:102300000E94771C87FF26CE97CE398D3E3109F08B
:1023100065C081E3829D4001839D900C1124D4010E
:10232000AA50BD4F4D01D0961C920E940A1FBC01BD
:10233000882777FD8095982F0E94191D20E03EEF99
:102340004FEF56E40E947E1C9B01AC010E94EB1BE8
:102350002BED3FE049E450E40E94321E5B016C012A
:10236000F4012481358146815781608171818281A8
:102370009381F1E4FF93A0E7AF931F921F92E12CAA
:10238000F12C00EA10E40E9494050E940A1FBC018F
:10239000882777FD8095982F0E94191D20E03EEF39
:1023A0004FEF56E40E947E1C9B01AC010E94EB1B88
:1023B0002BED3FE049E450E40E94321E5B016C01CA
:1023C000F401248135814681578160817181828148
:1023D0009381F1E4FF93A0E7AF9399CE21E3229D8F
:1023E000F001239DF00D1124EA50FD4F10AA8091B9
:1023F00012019091130101979093130180931201A0
:102400008FCE80913A0190E001966AE070E00E94E0
:10241000D61B80933A01ECCE10E0F80193E0EE0F6A
:10242000FF1F9A95E1F7EA5AFD4F448155812081BB
:102430003181420F531F518340832681378162814E
:102440007381260F371F338322834134514060F458
:10245000213F310548F4C8010196B6010E94D61B00
:10246000082F0E11D9CF08C08F2D90E00196B6012C
:102470000E94D61BF82EEFCFF09204028091020248
:10248000882309F451C004E715E0F8012089318957
:102490004289538960817181828193810E94EB1B03
:1024A000D8016D937D938D939C93139754962D91A2
:1024B0003D914D915C91579714966D917D918D91C1
:1024C0009C9117970E94EB1BF801648375838683A8
:1024D00097832089318942895389608571858285F6
:1024E00093850E94EB1BD80118966D937D938D9375
:1024F0009C931B9754962D913D914D915C915797CC
:102500001C966D917D918D919C911F970E94EB1B64
:10251000F8016487758786879787085E1F4FF5E007
:10252000043D1F0709F0B1CF69960FB6F894DEBFDE
:102530000FBECDBFDF91CF911F910F91FF90EF9014
:10254000DF90CF90BF90AF909F908F907F906F90D3
:102550005F904F903F902F9008951F920F920FB66B
:102560000F9211240BB60F922F933F934F935F93CB
:102570006F937F938F939F93AF93BF93EF93FF934B
:1025800080910001811105C00E94E20E80E48093D9
:1025900000010E94260D0E94360F0E940E0D8091B0
:1025A0000001815080930001FF91EF91BF91AF91A5
:1025B0009F918F917F916F915F914F913F912F915B
:1025C0000F900BBE0F900FBE0F901F90189593E8C1
:1025D0009093B00091E09093B1008093B300089580
:1025E0009093DE088093DD0826E330E020930040DE
:1025F000009779F480EF90E09093DA088093D908FF
:1026000080E491E09093DC088093DB0888E490E01C
:1026100034C08130910579F480E491E09093DA0838
:102620008093D90880EF90E09093DC088093DB08DA
:1026300088EE90E022C08230910579F480EF90E03E
:102640009093DA088093D90880E491E09093DC08B5
:102650008093DB0888E890E010C0039781F480E461
:1026600091E09093DA088093D90880EF90E09093FE
:10267000DC088093DB0888E290E0809300418AE2E6
:1026800090E08093004080E090E090930041809340
:1026900000418091D9089091DA0801979093004108
:1026A000809300418BE290E08093004080E090E0D6
:1026B00090930041809300418091DB089091DC0869
:1026C000019790930041809300410895CF938737FD
:1026D00050F4883050F08D3350F48F3150F4803105
:1026E00050F0C2E009C086E702C088E004C0C0E044
:1026F00003C0C1E001C0C3E021EB30E02093004003
:10270000C0930041682F70E080E090E00E94191DA6
:102710009B01AC0160E070E080EF94E40E947E1CBD
:102720000E94EB1C70E002C075956795CA95E2F7B0
:1027300060930041CF9108950F931F93CF93DF9340
:10274000CDB7DEB728970FB6F894DEBF0FBECDBF6A
:1027500029833A834B835C836D837E838F83988741
:1027600069817A812B813C814D815E818F81988541
:10277000EAE2F0E0E0930040709300416093004192
:102780003093004120930041EBE2F0E0E093004001
:102790005093004140930041909300418093004149
:1027A000ECE2F0E0E09300402F5F3F4F261B370B39
:1027B0000196841B950B2817390790F4682F6770D2
:1027C000629FA001639F500D112473E09695879539
:1027D0007A95E1F7829FB001839F700D112411C09B
:1027E000622F6770689FA001699F500D112463E0FC
:1027F000369527956A95E1F7289FB001299F700DBE
:102800001124842F8770815028F010930041009389
:102810000041F9CFCA0123E0969587952A95E1F703
:10282000860F971F019708F1109300410093004114
:102830001093004100930041109300410093004128
:102840001093004100930041109300410093004118
:102850001093004100930041109300410093004108
:102860001093004100930041DDCF28960FB6F894F5
:10287000DEBF0FBECDBFDF91CF911F910F910895A5
:10288000EF92FF920F931F93CF93DF93CDB7DEB7F5
:1028900028970FB6F894DEBF0FBECDBF29833A83C9
:1028A0004B835C836D837E838F83988789819A8134
:1028B000EB80FC806D817E81AF81B8852AE230E0BB
:1028C000209300409093004180930041F09200419A
:1028D000E09200412BE230E02093004070930041F1
:1028E00060930041B0930041A09300412CE230E09E
:1028F00020930040E816F906A0F0A8019B018A0188
:10290000A217B30760F04E5F5F4FF801008111819D
:1029100010930041009300412F5F3F4FF0CF01968D
:10292000E9CF28960FB6F894DEBF0FBECDBFDF917A
:10293000CF911F910F91FF90EF900895813421E086
:10294000920730F5613F710518F52AE230E02093D7
:102950000040909300418093004101969093004184
:10296000809300418BE290E080930040709300419F
:10297000609300416F5F7F4F70930041609300410F
:102980008CE290E0809300405093004140930041DE
:1029900008952F923F924F925F926F927F928F9203
:1029A0009F92AF92BF92CF92DF92EF92FF920F93DE
:1029B0001F93CF93DF93CDB7DEB72C970FB6F89464
:1029C000DEBF0FBECDBF9C878B871B0159011A87C5
:1029D0000987481B590BBA01882777FD8095982FE6
:1029E0000E94191D6B017C01B501621973098827CA
:1029F00077FD8095982F0E94191D69837A838B83B8
:102A00009C8326013701E89477F84B015C01E89438
:102A1000B7F8A5019401C301B2010E94271E181640
:102A20001CF4C301B20102C0C501B4010E94E61C3E
:102A30008B01882777FD8095982F0E94191D4B01E7
:102A40005C019B01AC01C701B6010E947E1C6D8335
:102A50007E838F839887A501940169817A818B8118
:102A60009C810E947E1C2B013C012B853C85B90179
:102A7000882777FD8095982F0E94191D6B017C0196
:102A8000B101882777FD8095982F0E94191D4B0171
:102A90005C01212C312C2016310644F52D813E811C
:102AA0004F815885C701B6010E94EB1B6B017C0169
:102AB000A3019201C501B4010E94EB1B4B015C0113
:102AC0000E94EB1C69837A838B839C83C701B601C8
:102AD0000E94EB1CDC01CB0149855A8569817A8112
:102AE0000E949E143FEF231A330AD5CF2C960FB6BF
:102AF000F894DEBF0FBECDBFDF91CF911F910F9134
:102B0000FF90EF90DF90CF90BF90AF909F908F900D
:102B10007F906F905F904F903F902F9008953F92DD
:102B20004F925F926F927F928F929F92AF92BF92DD
:102B3000CF92DF92EF92FF920F931F93CF93DF9389
:102B4000EC015B016A0149013801312C280181E067
:102B5000481A5108832D90E08415950528F50196B3
:102B6000880F991FFC013297D401A80FB91F2D912E
:102B70003C912A0D3B1DD601A80FB91F4D915C91C8
:102B80004C0F5D1FD401AE0FBF1F6D917C916A0D7C
:102B90007B1DEC0DFD1D8081918187018C0F9D1F98
:102BA0000E94C9143394D6CF660C771CF40120819F
:102BB00031812A0D3B1DF601408151814C0F5D1F73
:102BC000F401E60DF71D608171816A0D7B1DF60130
:102BD000E60DF71D8081918187018C0F9D1F0E945A
:102BE000C914DF91CF911F910F91FF90EF90DF906B
:102BF000CF90BF90AF909F908F907F906F905F909D
:102C00004F903F9008956F927F928F929F92AF92D4
:102C1000BF92CF92DF92EF92FF920F931F93CF93C9
:102C2000DF936C01EB01490197FF05C0480F591F65
:102C3000612C712C01C03C01CE01880D991D5301FE
:102C4000A40EB51E2AE230E0D7FD29C02093004033
:102C50007092004160920041B0920041A092004108
:102C60002BE230E020930040D0930041C09300411C
:102C70009E012F5F3F4F30930041209300412CE293
:102C800030E02093004020E030E0241735078CF43A
:102C900010930041009300412F5F3F4FF6CF2093E8
:102CA00000407092004160920041B0920041A092B9
:102CB0000041813F910514F07E012CC02BE230E0F1
:102CC000209300409093004180930041019690939F
:102CD0000041809300418CE290E08093004080E0CE
:102CE00090E08417950744F710930041009300414A
:102CF0000196F7CF1C141D042CF4A801B701C301E1
:102D00000E949E14A801B701C5010E949E148FEF76
:102D1000E81AF80AC7018C1B9D0B8815990554F316
:102D2000DF91CF911F910F91FF90EF90DF90CF90A7
:102D3000BF90AF909F908F907F906F9008950F936A
:102D40001F93CF93DF93CDB7DEB728970FB6F894D4
:102D5000DEBF0FBECDBF1092E0081092DF081092C8
:102D6000E2081092E1081A8219828091D9089091A4
:102D7000DA080197482F9C838B831E821D828091E5
:102D8000DB089091DC08019798878F830091E50814
:102D90001091E60820E03A815C8160E07E819885B0
:102DA0000E949C1328960FB6F894DEBF0FBECDBFCD
:102DB000DF91CF911F910F91089586E08093750068
:102DC00080E8809374003F9A249A8FEC97E00197F3
:102DD000F1F700C0000047988FE39CE90197F1F7F5
:102DE00000C00000479A9FEF2DEE82E091502040F6
:102DF0008040E1F700C0000088E290E0809300404E
:102E000081E190E0809300409FEF26E781E09150C0
:102E100020408040E1F700C0000021E030E08BEC72
:102E200090E0809300402093004180EC90E08093FC
:102E3000004088E096E2909300418093004120E1B9
:102E400030E081EC90E0809300402093004185ECDD
:102E500090E0809300408EE395E39093004180934F
:102E6000004125EB30E087EC90E080930040209318
:102E7000004121E030E086EF90E080930040209315
:102E8000004180E090E0909300418093004125E56F
:102E900030E08AE390E0809300402093004181E09D
:102EA00090E00E94F0120E949F161092E00810928B
:102EB000DF081092E2081092E1081092E6081092E2
:102EC000E5088FEF9FEF9093E4088093E30889E291
:102ED00090E0809300409FE728E381E091502040FC
:102EE0008040E1F700C0000020E030E085E390E0A2
:102EF0008093004020930041EAE6F0E08081806208
:102F000080832C9A0895CF92DF92EF92FF920F93D5
:102F10001F93CF93DF93F091DF08E091E0082091B9
:102F2000E1083091E2088A30E1F41092E008109252
:102F3000DF08285F3F4F3093E2082093E10880913B
:102F4000DB089091DC082817390708F49FC0DF914F
:102F5000CF911F910F91FF90EF90DF90CF900C9445
:102F60009F1690EE980F9F3508F090C0B901695FE9
:102F70007F4F992787FD90958097A5E0A89FA00196
:102F8000A99F500D11244D515F4F8BE290E080932B
:102F900000403093004120930041709300416093C2
:102FA00000418F2F9E2F8C010C5F1F4FAAE2EA2E4B
:102FB000F12CBCE2CB2ED12C481B590B081719075A
:102FC00050F1E09200409093004180930041909333
:102FD000004180930041C0920040FA01E80FF91FC0
:102FE000E491D901F1E06A177B0798F0CF2FCE2347
:102FF00029F0C091E308D091E40804C0C091E5082D
:10300000D091E608D0930041C09300411196FF0F84
:10301000EACF0196D3CF4AE250E04093004090932C
:1030200000418093004190930041809300418CE2E5
:1030300090E0809300406217730758F08091E50894
:103040009091E60890930041809300412F5F3F4F9D
:10305000F2CF8091DF089091E00806969093E00807
:103060008093DF082091D9083091DA0882179307FE
:1030700068F01092E0081092DF088091E1089091CA
:10308000E20808969093E2088093E108DF91CF91DF
:103090001F910F91FF90EF90DF90CF9008951F93B5
:1030A000CF93DF93EC0110E0FE01E10FF11D808171
:1030B000882321F00E9483171F5FF6CFDF91CF9105
:1030C0001F9108959093E0088093DF087093E208C1
:1030D0006093E10808959093E4088093E308709367
:1030E000E6086093E50808951F93CF93DF93EC0102
:1030F0007093E0086093DF085093E2084093E10882
:1031000010E0FE01E10FF11D8081882321F00E9473
:1031100083171F5FF6CFDF91CF911F910895909392
:10312000E0088093DF087093E2086093E1083F9322
:103130002F935F934F930E948D190F900F900F90D4
:103140000F900895AC0120E030E06150710926171E
:1031500037075CF4FC01E49FC001E59F900DF49FEC
:10316000900D11242F5F3F4FF2CF08959F92AF92A1
:10317000BF92CF92DF92EF92FF920F931F93CF9364
:10318000DF93CDB7DEB7A0970FB6F894DEBF0FBEC2
:10319000CDBFA82E992E682F792FBB24B39490E130
:1031A000E92EF12C2AE0C22ED12C0B2D10E0F701D4
:1031B000E01BF10BEE0FFF1F81E090E08C0F9D1FD5
:1031C000E80FF91FCB01B6010E94C21BC096918384
:1031D0008083B8018AE090E00E94A218BC018A2D89
:1031E000992D0E94C21B81E08B0D6115710511F0B4
:1031F000B82EDBCF1FE01B19103158F4FE013196B9
:10320000E10FF11DE10FF11D80810E9483171F5F07
:10321000F3CFA0960FB6F894DEBF0FBECDBFDF91FF
:10322000CF911F910F91FF90EF90DF90CF90BF90C3
:10323000AF909F900895BF92CF92DF92EF92FF924E
:103240000F931F93CF93DF93CDB7DEB7FE013C966C
:10325000E190F1908F01B12CF701EB0DF11D808110
:103260008823C1F0853291F4B394F701EB0DF11D81
:103270008081843669F4680182E0C80ED11CF801AF
:10328000808191810E94B618860102C00E94831736
:10329000B394E2CFDF91CF911F910F91FF90EF9008
:1032A000DF90CF90BF900895E0912C01F0912D0117
:1032B0009F012F5F3F4F30932D0120932C0180837E
:1032C00008958A3034F090911D01992321F097E3FD
:1032D00003C090E301C097E5890F0E94541981E073
:1032E00080931C01089520911E0130911F0140E040
:1032F0002817390720F04F5F281B390BF9CF30937F
:103300001F0120931E0180911C01811102C04423E2
:1033100019F0842F0C94611908958F929F92AF92A7
:10332000BF92CF92DF92EF92FF920F931F93CF93B2
:10333000DF9300D0CDB7DEB7FE017196E190F1903A
:103340008F0180E2C82E81E0D82EF701808188238A
:1033500009F4DBC0853231F09FEFE91AF90A0E94C7
:103360008317F3CFF7012181203329F0F2E0EF0E2C
:10337000F11CB12C07C0F7012281C70103967C0123
:10338000BB24B39480ED820F8A3078F4F701A12C2E
:103390007F0180ED820F8A3048F49A2D990F990FA2
:1033A000A90EAA0CA80E2191F3CFA12CD0922D0129
:1033B000C0922C0110921C01233609F461C04CF418
:1033C000253209F46CC02835C1F1222309F49DC0CF
:1033D00069C0233709F45DC01CF4243631F062C0A3
:1033E000253719F0283749F15DC0480192E0890E70
:1033F000911CF8018081918190931F0180931E019F
:10340000243661F497FF0AC09195819591099093B4
:103410001F0180931E018DE20E94541980E197E202
:103420000E94731988EE93E00E94731984E690E07D
:103430000E9473198AE090E01BC081E0283509F0F2
:1034400080E080931D014801F2E08F0E911CF8018D
:103450008081918190931F0180931E0180E090E113
:103460000E94731980E091E00E94731980E190E05E
:103470000E94731980911E010E946119840112C07B
:103480004801F2E08F0E911CF80180810E945419CE
:10349000F5CFF801208131810E5F1F4F05C085E215
:1034A0000E94541920E231E0E0912C01F0912D01AD
:1034B000108230932D0120932C01F901CF01019648
:1034C0004081442329F01A141CF4AA94FC01F6CF7D
:1034D00090932D0180932C011A146CF4BB2011F0F1
:1034E00080E301C080E229833A830E948317AA9473
:1034F0003A812981F1CF5901F50181915F0188233A
:1035000009F423CF0E948317F7CF0F900F90DF911C
:10351000CF911F910F91FF90EF90DF90CF90BF90D0
:10352000AF909F908F9008950C9483176F98779A1F
:1035300087B1837C87B988B18C6388B96F98779A93
:1035400087B1837C87B988B18C6388B9EAE6F0E0FB
:103550008081856880830895679917C080913801BC
:1035600090913901892B89F480912E0190912F013E
:10357000892B59F481E090E09093390180933801D0
:1035800090932F0180932E010895679B0EC0809128
:10359000380190913901892B41F010923901109234
:1035A000380110922F0110922E0180E090E00895D2
:1035B000329917C08091360190913701892B89F497
:1035C00080912E0190912F01892B59F481E090E098
:1035D000909337018093360190932F0180932E01B1
:1035E0000895329B0EC08091360190913701892B4E
:1035F00041F0109237011092360110922F01109273
:103600002E0180E090E00895349917C08091340134
:1036100090913501892B89F480912E0190912F0191
:10362000892B59F481E090E0909335018093340127
:1036300090932F0180932E010895349B0EC08091AA
:10364000340190913501892B41F01092350110928F
:10365000340110922F0110922E0180E090E0089525
:10366000339917C08091320190913301892B89F4ED
:1036700080912E0190912F01892B59F481E090E0E7
:10368000909333018093320190932F0180932E0108
:103690000895339B0EC08091320190913301892BA4
:1036A00041F0109233011092320110922F011092CA
:1036B0002E0180E090E00895359917C08091300187
:1036C00090913101892B89F480912E0190912F01E5
:1036D000892B59F481E090E090933101809330017F
:1036E00090932F0180932E010895359B0EC08091F9
:1036F000300190913101892B41F0109231011092EB
:10370000300110922F0110922E0180E090E0089578
:10371000339906C080912E0190912F01892B39F0A9
:1037200010922F0110922E0180E090E0089581E028
:1037300090E00895329906C080912E0190912F015A
:10374000892B39F010922F0110922E0180E090E029
:10375000089581E090E00895359906C080912E018A
:1037600090912F01892B39F010922F0110922E0188
:1037700080E090E0089581E090E008950E94950730
:103780007894FFCFAA1BBB1B51E107C0AA1FBB1F28
:10379000A617B70710F0A61BB70B881F991F5A95DD
:1037A000A9F780959095BC01CD01089597FB072E50
:1037B00016F4009407D077FD09D00E94C21B07FCC5
:1037C00005D03EF4909581959F4F08957095619531
:1037D0007F4F08955058BB27AA270ED0EDC1B6D110
:1037E00030F0BBD120F031F49F3F11F41EF486C1BC
:1037F0000EF4E095E7FB7CC1E92F00D280F3BA1705
:10380000620773078407950718F071F49EF518C2D4
:103810000EF4E0950B2EBA2FA02D0B01B9019001EB
:103820000C01CA01A0011124FF27591B99F0593F2F
:1038300050F4503E68F11A16F040A22F232F342F77
:103840004427585FF3CF469537952795A795F040C5
:103850005395C9F77EF41F16BA0B620B730B840BDA
:10386000BAF09150A1F0FF0FBB1F661F771F881F92
:10387000C2F70EC0BA0F621F731F841F48F48795EA
:1038800077956795B795F7959E3F08F0B3CF9395D9
:10389000880F08F09927EE0F979587950895DF9385
:1038A000DD27B92FBF7740E85FE3161617064807F4
:1038B0005B0710F4D92FCFD19F938F937F936F9392
:1038C0003AD2E8E9F0E01DD177D12F913F914F91A5
:1038D0005F91D4D1DD2349F09058A2EA2AED3FE070
:1038E00049EC5FE3D0785D2787DFDF9165C1DCD0ED
:1038F00008F481E0089539D1E3956FC10CD05CC123
:103900002CD140F023D130F021F45F3F19F0F0C00A
:10391000511197C1F3C072D198F39923C9F355237C
:10392000B1F3951B550BBB27AA27621773078407B2
:1039300038F09F5F5F4F220F331F441FAA1FA9F368
:1039400033D00E2E3AF0E0E830D091505040E6955A
:10395000001CCAF729D0FE2F27D0660F771F881FBB
:10396000BB1F261737074807AB07B0E809F0BB0BAA
:10397000802DBF01FF2793585F4F2AF09E3F5105CE
:1039800068F0B6C05EC15F3FECF3983EDCF386950D
:1039900077956795B795F7959F5FC9F7880F911D44
:1039A0009695879597F90895E1E0660F771F881F30
:1039B000BB1F621773078407BA0720F0621B730BE3
:1039C000840BBA0BEE1F88F7E095089504D0689435
:1039D000B11137C108951AD188F09F5790F0B92FCF
:1039E0009927B751A0F0D1F0660F771F881F991F54
:1039F0001AF0BA95C9F712C0B13081F021D1B1E007
:103A000008951EC1672F782F8827B85F39F0B93F16
:103A1000CCF3869577956795B395D9F73EF4909555
:103A20008095709561957F4F8F4F9F4F0895E894D3
:103A300009C097FB3EF490958095709561957F4FF6
:103A40008F4F9F4F9923A9F0F92F96E9BB279395A4
:103A5000F695879577956795B795F111F8CFFAF4B4
:103A6000BB0F11F460FF1BC06F5F7F4F8F4F9F4FE5
:103A700016C0882311F096E911C0772321F09EE843
:103A8000872F762F05C0662371F096E8862F70E0A9
:103A900060E02AF09A95660F771F881FDAF7880F83
:103AA0009695879597F90895990F0008550FAA0BD9
:103AB000E0E8FEEF16161706E807F907C0F0121641
:103AC0001306E407F50798F0621B730B840B950B44
:103AD00039F40A2661F0232B242B252B21F4089599
:103AE0000A2609F4A140A6958FEF811D811D089536
:103AF00097F99F6780E870E060E008959FEF80ECA1
:103B00000895DF93CF931F930F93FF92EF92DF926D
:103B10007B018C01689405C0DA2EEF01AFD0FE0165
:103B2000E894A5912591359145915591AEF3EF011A
:103B300063DEFE019701A801DA9479F7DF90EF9038
:103B4000FF900F911F91CF91DF91089500240A9467
:103B50001616170618060906089500240A94121668
:103B60001306140605060895C9CF50D0E8F3E8946B
:103B7000E0E0BB279F57F0F02AED3FE049EC06C09C
:103B8000EE0FBB0F661F771F881F28F0B23A62073F
:103B90007307840728F0B25A620B730B840BE3950A
:103BA0009A9572F7803830F49A95BB0F661F771F8D
:103BB000881FD2F79048C4C0092E0394000C11F45A
:103BC000882352F0BB0F40F4BF2B11F460FF04C0F8
:103BD0006F5F7F4F8F4F9F4F0895EF93E0FF06C0B9
:103BE000A2EA2AED3FE049EC5FEB06DEE5DF0F904D
:103BF000039401FC9058E5ECF0E0AEC057FD9058FE
:103C0000440F551F59F05F3F71F04795880F97FBA0
:103C1000991F61F09F3F79F087950895121613065A
:103C20001406551FF2CF4695F1DF08C01616170689
:103C30001806991FF1CF86957105610508940895BE
:103C4000E894BB2766277727CB0197F908952CDFE7
:103C500008F48FEF08959B01AC0160E070E080E80C
:103C60009FE34CCE0BD0A8CF71DF28F076DF18F0A1
:103C7000952309F03DCF42CF1124E3CFBFDFA0F35E
:103C8000959FD1F3950F50E0551F629FF001729FF1
:103C9000BB27F00DB11D639FAA27F00DB11DAA1F10
:103CA000649F6627B00DA11D661F829F2227B00D5D
:103CB000A11D621F739FB00DA11D621F839FA00DE8
:103CC000611D221F749F3327A00D611D231F849F38
:103CD000600D211D822F762F6A2F11249F5750408F
:103CE0008AF0E1F088234AF0EE0FFF1FBB1F661F2A
:103CF000771F881F91505040A9F79E3F510570F0E3
:103D0000F7CE9FCF5F3FECF3983EDCF38695779537
:103D10006795B795F795E7959F5FC1F7FE2B880FDD
:103D2000911D9695879597F908959F931EDF0F90A3
:103D300007FCEE5F52CF9B01AC0194CF9F3F31F067
:103D4000915020F4879577956795B795880F911DC9
:103D50009695879597F908959F938F937F936F9387
:103D6000FF93EF939B01AC017DDFEF91FF91C9DEE3
:103D70002F913F914F915F9175CF8F929F92AF920C
:103D8000BF92CF92DF92EF92FF92CF93DF93EC013D
:103D9000688179818A819B81611571058105910511
:103DA00021F464E279ED8BE597E02DE133EF41E01A
:103DB00050E00E942C1F49015A019B01AC01A7EA67
:103DC000B1E40E94191F6B017C01ACEEB4EFA501B8
:103DD00094010E94271FC60ED71EE81EF91EF7FE8B
:103DE00006C081E0C81AD108E10880E8F80AC88254
:103DF000D982EA82FB82C6019F77DF91CF91FF9043
:103E0000EF90DF90CF90BF90AF909F908F900895EC
:103E10000C94BD1E81E091E00C94BD1EA0E0B0E0CA
:103E20008093010190930201A0930301B0930401D8
:103E300008950E944B1FA59F900DB49F900DA49FC5
:103E4000800D911D11240895B7FF0C94191F0E9435
:103E5000191F821B930B0895052E97FB1EF40094E7
:103E60000E94431F57FD07D00E945A1F07FC03D032
:103E70004EF40C94431F50954095309521953F4F3B
:103E80004F4F5F4F089590958095709561957F4F46
:103E90008F4F9F4F0895A29FB001B39FC001A39F72
:103EA000700D811D1124911DB29F700D811D112473
:103EB000911D0895A1E21A2EAA1BBB1BFD010DC086
:103EC000AA1FBB1FEE1FFF1FA217B307E407F507CA
:103ED00020F0A21BB30BE40BF50B661F771F881FA6
:103EE000991F1A9469F760957095809590959B013C
:0C3EF000AC01BD01CF010895F894FFCF94
:103EFC00400100000053636F72653A202564000096
:00000001FF
